:020000040800F2
:1000000000800120F91400086D0400086F04000846
:100010007104000873040008750400080000000063
:10002000000000000000000000000000770400084D
:1000300079040008000000007B0400087D0400082B
:100040004915000849150008491500084915000818
:100050004915000849150008491500084915000808
:1000600049150008491500084915000849150008F8
:1000700049150008491500084915000849150008E8
:10008000491500084915000849150008000000003E
:1000900000000000000000000000000049150008FA
:1000A00049150008491500084915000849150008B8
:1000B00049150008491500084915000849150008A8
:1000C0004915000849150008491500084915000898
:1000D00049150008491500084915000800000000EE
:1000E00049150008491500084915000800000000DE
:1000F000000000000000000000000000491500089A
:1001000000000000491500084915000849150008BD
:1001100000000000000000000000000000000000DF
:100120004915000849150008491500084915000837
:100130004915000800000000000000000000000059
:100140000000000000000000000000004915000849
:100150004915000849150008491500084915000807
:1001600049150008491500080000000000000000C3
:10017000000000000000000000000000000000007F
:100180000000000049150008000000000000000009
:040190004915000805
:1001940053B94AB9002908BF00281CBF4FF0FF31EA
:1001A4004FF0FF3000F00CB8ADF1080C6DE904CE4F
:1001B40001F0F6F9DDF804E0DDE9022304B070474C
:1001C400704700BF0348044B834202D0034B03B182
:1001D400184770470C0000200C00002000000000AD
:1001E4000548064B1B1AD90F01EBA301491002D095
:1001F400034B03B1184770470C0000200C0000208B
:100204000000000010B5064C237843B9FFF7DAFF6D
:10021400044B13B10448AFF300800123237010BDD5
:100224000C000020000000006018000808B5054B11
:100234001BB105490548AFF30080BDE80840FFF74E
:10024400CFBF00BF000000001000002060180008AD
:10025400F0B58BB00024059406940794089409948F
:1002640001942A4B1A6B42F004021A631A6B02F0CF
:1002740004020192019A02941A6B42F080021A63FA
:100284001A6B02F080020292029A03941A6B42F0F3
:1002940001021A631A6B02F001020392039A049496
:1002A4001A6B42F002021A631B6B03F002030493FD
:1002B400049B174F22464FF40871384600F02EFE77
:1002C400144D22468021284600F028FE4FF40053A6
:1002D4000593114B0693079405A9284600F048FDA1
:1002E4004FF408730593012606960794089405A90C
:1002F400384600F03DFD8023059306960794089444
:1003040005A9284600F034FD0BB0F0BD00380240CA
:1003140000000240000802400000211008B508480F
:10032400084B03604FF4E133436000238360C360F0
:1003340003610C2242618361C36101F085F808BD49
:10034400280000200044004008B50948094B036018
:10035400094B436000238360C3604FF48042026111
:1003640043618361C361036200F066F908BD00BFA5
:10037400C000002000540040A086010008B50C48CD
:100384000C4B03604FF48273436000238360C360AB
:10039400036143614FF4007282612022C2610362EF
:1003A400436283620A23C36200F07AFE08BD00BF81
:1003B400680000200030014030B595B030220021A3
:1003C40008A801F0C0F8002403940494059406944A
:1003D400079401941B4B1A6C42F080521A641B6CF4
:1003E40003F080530193019B0294174A136823F48A
:1003F400404343F400431360136803F440430293FF
:10040400029B0225089501230B9310230C930E9550
:100414000F9410934FF4A87311930423129307239A
:10042400139308A800F096F90F23039304950594F9
:100434004FF4805306930794294603A800F0C4FBA5
:1004440015B030BD003802400070004008B500F01F
:10045400FBFDFFF7B1FFFFF7FBFEFFF75FFFFFF7C1
:1004640073FFFFF78BFFFEE77047FEE7FEE7FEE74B
:10047400FEE770477047704708B500F0FFFD08BD00
:1004840000B583B0002100910C4B5A6C42F48042B9
:100494005A645A6C02F480420092009A01911A6CD8
:1004A40042F080521A641B6C03F080530193019B49
:1004B400072000F06DFD03B05DF804FB0038024036
:1004C40030B589B0002303930493059306930793EF
:1004D4000268154B9A4201D009B030BD0025019540
:1004E400124C236B43F002032363236B03F00203D8
:1004F4000193019B4FF4407303931223049301234C
:100504000593032306930423079303A9084800F0E3
:100514002FFC0295236C43F400132364236C03F42F
:1005240000130293029BD7E70054004000380240B6
:1005340000040240F0B589B00023039304930593AB
:100544000693079302681E4B9A4201D009B0F0BD8E
:100554000024009403F584335A6C42F480525A64A4
:100564005A6C02F480520092009A01941A6B42F081
:1005740001021A631A6B02F001020192019A0294B9
:100584001A6B42F002021A631B6B03F0020302931C
:10059400029BC0230393022704970326069605258E
:1005A400079503A9074800F0E3FB08230393049786
:1005B40005940696079503A9034800F0D9FBC5E7FF
:1005C40000300140000002400004024000B589B040
:1005D4000023039304930593069307930268144B33
:1005E4009A4202D009B05DF804FB0021019103F5A1
:1005F400FA331A6C42F400321A641A6C02F40032B0
:100604000192019A02911A6B42F001021A631B6B68
:1006140003F001030293029B0C230393022304932C
:100624000723079303A9034800F0A2FBDAE700BFFE
:100634000044004000000240002800F0828010B511
:10064400044690F83D30002B41D0242384F83D30FB
:100654002268136823F00103136000F069FB3A4B2E
:10066400A3FB00239B0C226853606168374A9142C4
:1006740032D80133226813626368344A934235D80E
:100684005B00B0FBF3F040F6FC73184200D1042089
:100694002368D861E369216A22680B4313602369E4
:1006A400E16822680B4393606369A16922680B4384
:1006B400D3602268136843F00103136000202064B0
:1006C400202384F83D30206384F83E0010BD80F878
:1006D4003C30FFF7F5FEB8E74FF4967202FB03F3E4
:1006E4001B4AA2FB03239B090133C3E7A16889B911
:1006F40003EB4302B0FBF2F2C2F30B02B2FA82F252
:100704005209E2B991B903EB4303B0FBF3F343F4A9
:100714000040BDE703EB830202EB8202B0FBF2F27E
:10072400C2F30B02B2FA82F25209EAE703EB830343
:1007340003EB8303B0FBF3F040F44040A8E701204F
:10074400A6E70120704700BF83DE1B43A08601009B
:10075400D34D6210002800F0BA8170B582B004460F
:10076400036813F0010F3BD09F4B9B6803F00C030D
:10077400042B2CD09C4B9B6803F00C03082B21D03A
:100784006368B3F5803F4FD0B3F5A02F52D0964B9A
:100794001A6822F480321A601A6822F480221A60DD
:1007A4006368002B50D000F075FC05468E4B1B6827
:1007B40013F4003F14D100F06DFC401B6428F5D9FC
:1007C40003208BE1884B5B6813F4800FD8D0864BF1
:1007D4001B6813F4003F03D06368002B00F0798199
:1007E400236813F0020F54D07F4B9B6813F00C0F57
:1007F4003ED07D4B9B6803F00C03082B33D0E36899
:10080400002B68D0794B01221A6000F043FC0546A6
:10081400754B1B6813F0020F54D100F03BFC401BD6
:100824000228F5D9032059E16F4A136843F4803351
:100834001360B5E76C4B1A6842F480221A601A6898
:1008440042F480321A60ABE700F024FC0546664BA4
:100854001B6813F4003FC3D000F01CFC401B642849
:10086400F5D903203AE1604B5B6813F4800FC6D1DD
:100874005D4B1B6813F0020F03D0E368012B40F0BB
:100884002A81594A136823F0F803216943EAC10312
:100894001360236813F0080F42D063696BB3534BA2
:1008A4000122C3F8802E00F0F5FB05464E4B5B6F2A
:1008B40013F0020F34D100F0EDFB401B0228F5D9F0
:1008C40003200BE1484A136823F0F803216943EA43
:1008D400C1031360DDE7454B00221A6000F0DAFB28
:1008E4000546414B1B6813F0020FD2D000F0D2FB37
:1008F400401B0228F5D90320F0E03C4B0022C3F84A
:10090400802E00F0C7FB0546374B5B6F13F0020FD8
:1009140006D000F0BFFB401B0228F5D90320DDE020
:10092400236813F0040F77D02F4B1B6C13F0805FF8
:1009340033D1002301932C4B1A6C42F080521A6479
:100944001B6C03F080530193019B0125284B1B680A
:1009540013F4807F23D0A368012B34D0052B38D027
:10096400214B1A6F22F001021A671A6F22F0040257
:100974001A67A368002B3DD000F08CFB06461A4B87
:100984001B6F13F0020F46D100F084FB801B41F271
:1009940088339842F3D90320A0E00025D6E7144A0F
:1009A400136843F48073136000F074FB0646104B25
:1009B4001B6813F4807FCED100F06CFB801B0228EF
:1009C400F5D903208AE0084A136F43F00103136743
:1009D400CFE7054B1A6F42F004021A671A6F42F010
:1009E40001021A67C5E700BF003802400000474211
:1009F4000070004000F04EFB06463A4B1B6F13F0AC
:100A0400020F08D000F046FB801B41F28833984265
:100A1400F3D9032062E0E5B9A369002B5DD0314A24
:100A2400926802F00C02082A5AD0022B17D02E4BDF
:100A340000221A6600F02EFB04462A4B1B6813F0B2
:100A4400007F42D000F026FB001B0228F5D90320CA
:100A540044E0244A136C23F080531364DCE7224BF4
:100A640000221A6600F016FB05461E4B1B6813F0A5
:100A7400007F06D000F00EFB401B0228F5D90320AE
:100A84002CE0E369226A1343626A43EA8213A26A8E
:100A94005208013A43EA0243E26A43EA0263114A12
:100AA4005360114B01221A6600F0F4FA04460D4B10
:100AB4001B6813F0007F06D100F0ECFA001B02283B
:100AC400F5D903200AE0002008E0002006E0012018
:100AD4007047012002E0012000E0002002B070BD58
:100AE4000120FBE7003802400000474208B5334BC1
:100AF4009B6803F00C03042B5BD0082B5BD12F4BBA
:100B04005A6802F03F025B6813F4800F2CD02B4B21
:100B14005868C0F388104FEA401CBCEB000C6EEB25
:100B24000E0E4FEA8E1343EA9C634FEA8C11B1EB2D
:100B34000C0163EB0E03DB0043EA5173C90011EBB4
:100B4400000C43F10003590200234FEA4C2041EA10
:100B5400DC51FFF71DFB194B5B68C3F30143013301
:100B64005B00B0FBF3F008BD144B5868C0F3881069
:100B74004FEA401CBCEB000C6EEB0E0E4FEA8E13DA
:100B840043EA9C634FEA8C11B1EB0C0163EB0E0357
:100B9400DB0043EA5173C90011EB000C43F100037D
:100BA400990200234FEA8C2041EA9C51FFF7F0FAA6
:100BB400D1E70348D7E70348D5E700BF0038024030
:100BC40000127A000024F400002800F09A8070B526
:100BD4000D4604464F4B1B6803F00F038B4208D2AB
:100BE400CBB24C4A1370136803F00F038B4240F0EE
:100BF4008A80236813F0020F17D013F0040F04D077
:100C0400454A936843F4E0539360236813F0080F54
:100C140004D0414A936843F4604393603E4A936826
:100C240023F0F003A1680B439360236813F0010FD2
:100C340032D06368012B21D09A1E012A25D9364A65
:100C4400126812F0020F60D033498A6822F003025E
:100C540013438B6000F01EFA06462F4B9B6803F08B
:100C64000C036268B3EB820F16D000F013FA801BFA
:100C740041F288339842F0D9032041E0264A1268B1
:100C840012F4003FE0D101203AE0234A126812F046
:100C9400007FD9D1012033E01E4B1B6803F00F0302
:100CA400AB4207D9EAB21B4B1A701B6803F00F035F
:100CB400AB422CD1236813F0040F06D0164A936874
:100CC40023F4E053E1680B439360236813F0080FA7
:100CD40007D0114A936823F46043216943EAC103AE
:100CE4009360FFF703FF0C4B9B68C3F303130B4A9A
:100CF400D35CD8400A4B1860002000F07FF9002034
:100D040070BD012070470120FAE70120F8E70120B7
:100D1400F6E700BF003C024000380240801800089B
:100D240008000020014B1868704700BF080000202D
:100D340008B5FFF7F7FF044B9B68C3F38223034A0C
:100D4400D35CD84008BD00BF0038024078180008C2
:100D540008B5FFF7E7FF044B9B68C3F34233034A2C
:100D6400D35CD84008BD00BF0038024078180008A2
:100D740000230F2B00F2C88070B582B03AE0042241
:100D840000E00022AA4032430234604D45F824209A
:100D94005F4A14686FEA0C0224EA0C054E6816F4E4
:100DA400803F01D04CEA0405594C2560646802EA8E
:100DB40004054E6816F4003F01D04CEA0405544C77
:100DC4006560A46802EA04054E6816F4801F01D029
:100DD4004CEA04054E4CA560E46822404D6815F4C5
:100DE400001F01D04CEA0402494CE26001330F2B8E
:100DF40000F2888001229A400C6804EA020C32EA6C
:100E04000404F3D14C68022C01D0122C12D1DD0859
:100E1400083550F8254003F00706B6004FF00F0ED2
:100E24000EFA06FE24EA0E0E0C69B44044EA0E04DF
:100E340040F8254006684FEA430E032404FA0EF4F2
:100E4400E54326EA04064C6804F0030404FA0EF4AD
:100E5400344304604C68661E012E03D9112C01D062
:100E6400122C0FD186682E40CC6804FA0EF4344359
:100E74008460446824EA02044A68C2F300129A4077
:100E840022434260C26815408A6802FA0EF22A437D
:100E9400C2604A6812F0805FA8D0002201921D4A05
:100EA400546C44F480445464526C02F480420192C1
:100EB400019A9C08A51C154A52F8256003F0030505
:100EC400AD000F22AA4026EA0206134A90423FF4DC
:100ED40058AF02F5806290420ED002F580629042D3
:100EE4000CD002F5806290420AD002F580629042F2
:100EF4003FF445AF072245E7012243E7022241E7D9
:100F040003223FE702B070BD704700BF00380140C4
:100F1400003C014000380240000002400AB18161F7
:100F24007047090481617047002808DB0901C9B2D0
:100F340000F1604000F5614080F80013704700F054
:100F44000F000901C9B2014B1954704714ED00E0B8
:100F540000B500F00700C0F1070CBCF1040F28BF76
:100F64004FF0040C031D062B0FD9C31E4FF0FF3E98
:100F74000EFA0CF021EA000199400EFA03FE22EA6F
:100F84000E0241EA02005DF804FB0023EEE70000D4
:100F9400074AD36823F4E0631B041B0C000200F42B
:100FA400E060034343F0BF6343F40033D36070470E
:100FB40000ED00E010B50446054BD868C0F30220EC
:100FC400FFF7C6FF01462046FFF7AEFF10BD00BF86
:100FD40000ED00E00138B0F1807F0BD24FF0E02348
:100FE4005861054AF02182F82310002098610722F5
:100FF4001A6170470120704700ED00E010B5044607
:101004000E4B1A784FF47A73B3FBF2F30C4A106860
:10101400B0FBF3F0FFF7DEFF68B90F2C01D9012014
:101024000AE0002221464FF0FF30FFF7C3FF054BD3
:101034001C60002000E0012010BD00BF0000002063
:10104400080000200400002008B50B4B1A6842F485
:1010540000721A601A6842F480621A601A6842F4D4
:1010640080721A600320FFF793FF0020FFF7C6FF8A
:10107400FFF706FA002008BD003C0240034A11684D
:10108400034B1B780B441360704700BF140100200E
:1010940000000020014B1868704700BF14010020B5
:1010A40000283BD010B504460023836290F85130E9
:1010B400002B2ED0022384F851302268136823F0C9
:1010C400400313606368A2681343E2681343226910
:1010D400134362691343A26902F400721343E26981
:1010E4001343226A1343A16A22680B431360638B80
:1010F40003F00403616A22680B4353602268D369D6
:1011040023F40063D36100206065012384F8513027
:1011140010BD80F85030FFF70DFACBE7012070477F
:101124002DE9F041044601680A6922F44052C3687B
:1011340013430B610168CA6822F4164222F00C02C0
:1011440083680069034360690343E069034313430D
:10115400CB6021684A6922F44072A36913434B614E
:10116400E369B3F5004F5ED02368B54A934200F0BB
:10117400108102F58062934200F00B81FFF7D8FDE5
:1011840000EB800000EB800063689B00B0FBF3F58C
:10119400AC4FA7FB05356D092E01FFF7C9FD00EB28
:1011A400800000EB800063689B00B0FBF3F5FFF761
:1011B400BFFD00EB800000EB800063689B00B0FB88
:1011C400F3F0A7FB003040094FF0640808FB10530C
:1011D4001B013233A7FB03235B0903F0F003F5186B
:1011E400FFF7A6FD00EB800000EB800063689B0026
:1011F400B0FBF3F6FFF79CFD00EB800000EB8000F2
:1012040063689B00B0FBF3F0A7FB0030400908FBC8
:1012140010631B013233A7FB0373C3F34313226828
:101224001D44956009E12368854A93425AD002F52A
:101234008062934256D0FFF77BFD00EB800000EB09
:10124400800863685B00B8FBF3F87E4EA6FB0838A1
:101254004FEA58184FEA0818FFF76AFD00EB8000C0
:1012640000EB800063685B00B0FBF3F5FFF760FD03
:1012740000EB800000EB800063685B00B0FBF3F3DD
:10128400A6FB03235B09642707FB1355ED003235E6
:10129400A6FB05356D096D0005F4F8754544FFF7A7
:1012A40047FD00EB800000EB800063685B00B0FB4F
:1012B400F3F8FFF73DFD00EB800000EB800063686E
:1012C4005B00B0FBF3F3A6FB03235B0907FB13836B
:1012D400DB003233A6FB0363C3F3421322681D44CD
:1012E4009560AAE0FFF734FD00EB800000EB80007E
:1012F40063685B00B0FBF3F8524EA6FB08384FEA74
:1013040058184FEA0818FFF723FD00EB800000EBA4
:10131400800063685B00B0FBF3F5FFF719FD00EB99
:10132400800000EB800063685B00B0FBF3F3A6FB76
:1013340003235B09642707FB1355ED003235A6FB35
:1013440005356D096D0005F4F8754544FFF700FD9A
:1013540000EB800000EB800063685B00B0FBF3F8F7
:10136400FFF7F6FC00EB800000EB800063685B0095
:10137400B0FBF3F3A6FB03235B0907FB1383DB003A
:101384003233A6FB0363C3F3421322681D44956002
:1013940053E0FFF7DDFC00EB800000EB80006368A6
:1013A4009B00B0FBF3F5274FA7FB05356D092E0114
:1013B400FFF7CEFC00EB800000EB800063689B002D
:1013C400B0FBF3F5FFF7C4FC00EB800000EB8000FA
:1013D40063689B00B0FBF3F0A7FB003040094FF0BB
:1013E400640808FB10531B013233A7FB03235B097A
:1013F40003F0F003F518FFF7ABFC00EB800000EB03
:10140400800063689B00B0FBF3F6FFF7A1FC00EBE0
:10141400800000EB800063689B00B0FBF3F0A7FB47
:101424000030400908FB10631B013233A7FB037330
:10143400C3F3431322681D449560BDE8F08100BFE7
:10144400001001401F85EB5158B310B5044690F8C5
:1014540039300BB3242384F839302268D36823F459
:101464000053D3602046FFF75BFE2268136923F420
:10147400904313612268536923F02A03536122685D
:10148400D36843F40053D3600020E063202384F83E
:10149400393084F83A3010BD80F83830FFF796F8C8
:1014A400D8E70120704700000F49D1F8883043F491
:1014B4007003C1F888300D4B1A6842F001021A60BB
:1014C400002098601A6822F0847222F480321A6034
:1014D400074A5A601A6822F480221A60D8604FF0D2
:1014E40000638B60704700BF00ED00E000380240ED
:1014F40010300024DFF834D0002103E00C4B5B589B
:10150400435004310B480C4B42189A42F6D30B4A11
:1015140002E0002342F8043B094B9A42F9D3FFF757
:10152400C3FF00F019F8FEF791FF70470080012017
:10153400A0180008000000200C0000200C0000206F
:1015440018010020FEE702440346934200D170478D
:1015540003F8011BF9E7000070B50D4D0D4C641B39
:10156400A4100026A64209D10B4D0C4C00F076F9CC
:10157400641BA4100026A64205D170BD55F8043B97
:1015840098470136EEE755F8043B98470136F2E7F1
:101594009818000898180008981800089C18000863
:1015A4002DE9F047089D0E4604460F46002B4AD10C
:1015B40094468C45B2FA82F260D942B1C2F120035A
:1015C400974020FA03F30CFA02FC1F4394404FEABD
:1015D4001C4E1FFA8CF6B7FBFEF1230C0EFB1177A1
:1015E40043EA074301FB06F098420AD91CEB0303C4
:1015F40001F1FF3780F01581984240F212810239DF
:1016040063441B1AA4B2B3FBFEF00EFB103344EA8E
:10161400034400FB06F6A6420AD91CEB040400F1BD
:10162400FF3380F00081A64240F2FD80644402381A
:1016340040EA0140A41B00211DB1D4400023C5E9A8
:101644000043BDE8F0878B4205D90DB1C5E900011F
:1016540000210846F5E7B3FA83F1002946D1B342E5
:1016640002D3824200F2F580841A66EB0302012061
:101674001746002DE5D0C5E90047E2E7002A40F00F
:101684009380A1EB0C034FEA1C471FFA8CFE012147
:10169400B3FBF7F607FB1630230C43EA00430EFBBB
:1016A40006F0984208D91CEB030306F1FF3802D276
:1016B400984200F2D08046461B1AA4B2B3FBF7F05E
:1016C40007FB103344EA03440EFB00FEA64508D989
:1016D4001CEB040400F1FF3302D2A64500F2B680ED
:1016E4001846A4EB0E0440EA0640A5E7C1F1200722
:1016F4008B4022FA07FC4CEA030C06FA01FE20FA9E
:1017040007F426FA07F344EA0E0400FA01F84FEA54
:101714001C404FEA1449B3FBF0FE1FFA8CF600FBA1
:101724001E3349EA03430EFB06F9994502FA01F216
:101734000BD91CEB03030EF1FF3A80F08580994529
:1017440040F28280AEF1020E6344A3EB0909A4B215
:10175400B9FBF0F300FB139944EA094403FB06F6D2
:10176400A64208D91CEB040403F1FF3068D2A64258
:1017740066D9023B644443EA0E40A41BA0FB02E684
:10178400B4427346B14652D34FD05DB1B8EB0302B5
:1017940064EB090404FA07F722FA01F31F43CC406F
:1017A400C5E9007400214CE7C2F1200120FA01F3DD
:1017B4000CFA02FC26FA01F1964033434FEA1C4727
:1017C4001FFA8CFEB1FBF7F007FB1016190C41EA67
:1017D400064100FB0EF68E4204FA02F408D91CEB13
:1017E400010100F1FF382DD28E422BD90238614419
:1017F400891B9BB2B1FBF7F607FB161143EA0143C1
:1018040006FB0EF1994208D91CEB030306F1FF38DD
:1018140014D2994212D9023E63445B1A46EA00414B
:1018240036E73946EDE6184602E7F045ADD2BEEBA1
:10183400020366EB0C060138B146A6E74646ECE720
:10184400034698E74046D3E7D6467EE76444023829
:1018540047E708460DE7023E63442DE7F8B500BFAD
:10186400F8BC08BC9E467047F8B500BFF8BC08BC7D
:041874009E467047D5
:101878000000000001020304000000000000000056
:08188800010203040607080930
:0818900014FDFF7F01000000C0
:041898003102000811
:04189C000902000835
:0C18A00001000000100000000024F40013
:04000005080014F9E2
:00000001FF
