:020000040800F2
:10000000008001205D2C00086D0F00086F0F0008B4
:10001000710F0008730F0008750F00080000000042
:10002000000000000000000000000000770F000842
:10003000790F0008000000007B0F00087D0F00080A
:10004000AD2C0008AD2C0008AD2C0008AD2C00082C
:10005000AD2C0008AD2C0008AD2C0008AD2C00081C
:10006000AD2C0008AD2C0008AD2C0008AD2C00080C
:10007000AD2C0008AD2C0008AD2C0008AD2C0008FC
:10008000AD2C0008AD2C0008AD2C000800000000CD
:10009000000000000000000000000000AD2C00087F
:1000A000AD2C0008AD2C0008AD2C0008AD2C0008CC
:1000B000AD2C0008AD2C0008AD2C0008AD2C0008BC
:1000C000AD2C0008AD2C0008AD2C0008AD2C0008AC
:1000D000AD2C0008AD2C0008AD2C0008000000007D
:1000E000AD2C0008AD2C0008AD2C0008000000006D
:1000F000000000000000000000000000AD2C00081F
:1001000000000000AD2C0008AD2C0008AD2C00084C
:1001100000000000000000000000000000000000DF
:10012000AD2C0008AD2C0008AD2C0008AD2C00084B
:10013000AD2C0008000000000000000000000000DE
:10014000000000000000000000000000AD2C0008CE
:10015000AD2C0008AD2C0008AD2C0008AD2C00081B
:10016000AD2C0008AD2C00080000000000000000CD
:10017000000000000000000000000000000000007F
:1001800000000000AD2C000800000000000000008E
:04019000AD2C00088A
:1001A00001F0FF01102A2BDB10F0070F08D010F828
:1001B000013B013A8B422DD010F0070F42B3F6D12C
:1001C000F0B441EA012141EA014122F007047FF045
:1001D00000070023F0E80256083C85EA010586EA9C
:1001E000010685FA47F5A3FA87F586FA47F6A5FAD8
:1001F00087F68EB9EED1F0BC01F0FF0102F00702E4
:1002000032B110F8013B013A83EA010313B1F8D18E
:100210000020704701387047002D06BF354603386F
:10022000073815F0010F07D1013015F4807F02BFA8
:10023000013015F4C03F0130F0BC0138704700BFF9
:1002400070B54FF0FF0C4CF4E06C1CEA11541DBF6C
:100250001CEA135594EA0C0F95EA0C0F00F0DEF837
:100260002C4481EA030621EA4C5123EA4C5350EA1C
:10027000013518BF52EA033541F4801143F480136D
:1002800038D0A0FB02CE4FF00005E1FB02E506F0FE
:100290000042E0FB03E54FF00006E1FB03569CF053
:1002A000000F18BF4EF0010EA4F1FF04B6F5007F59
:1002B00064F5407404D25FEA4E0E6D4146EB0606CB
:1002C00042EAC62141EA55514FEAC52040EA5E5054
:1002D0004FEACE2EB4F1FD0C88BFBCF5E06F1ED8FE
:1002E000BEF1004F08BF5FEA500E50F1000041EB35
:1002F000045170BD06F0004646EA010140EA0200E2
:1003000081EA0301B4EB5C04C2BFD4EB0C0541EA03
:10031000045170BD41F480114FF0000E013C00F318
:10032000AB8014F1360FDEBF002001F0004170BD3C
:10033000C4F10004203C35DA0C341BDC04F1140455
:10034000C4F1200500FA05F320FA04F001FA05F2E1
:1003500040EA020001F0004221F0004110EBD370AE
:1003600021FA04F642EB06015EEA430E08BF20EADA
:10037000D37070BDC4F10C04C4F1200500FA04F37D
:1003800020FA05F001FA04F240EA020001F000410F
:1003900010EBD37041F100015EEA430E08BF20EA82
:1003A000D37070BDC4F1200500FA05F24EEA020ECA
:1003B00020FA04F301FA05F243EA020321FA04F0F9
:1003C00001F0004121FA04F220EA020000EBD370B0
:1003D0005EEA430E08BF20EAD37070BD94F0000FB0
:1003E0000FD101F00046400041EB010111F4801FE4
:1003F00008BF013CF7D041EA060195F0000F18BF95
:10040000704703F00046520043EB030313F4801FD0
:1004100008BF013DF7D043EA0603704794EA0C0F8A
:100420000CEA135518BF95EA0C0F0CD050EA4106A0
:1004300018BF52EA4306D1D181EA030101F000411D
:100440004FF0000070BD50EA410606BF1046194645
:1004500052EA430619D094EA0C0F02D150EA013651
:1004600013D195EA0C0F05D152EA03361CBF104692
:1004700019460AD181EA030101F0004141F0FE4131
:1004800041F470014FF0000070BD41F0FE4141F4B5
:10049000780170BD81F0004102E000BF83F00043AD
:1004A00030B54FEA41044FEA430594EA050F08BF0F
:1004B00090EA020F1FBF54EA000C55EA020C7FEAD3
:1004C000645C7FEA655C00F0E2804FEA5454D4EB50
:1004D0005555B8BF6D420CDD2C4480EA020281EA1A
:1004E000030382EA000083EA010180EA020281EA52
:1004F0000303362D88BF30BD11F0004F4FEA0131A4
:100500004FF4801C4CEA113102D0404261EB4101B2
:1005100013F0004F4FEA03334CEA133302D0524238
:1005200063EB430394EA050F00F0A780A4F10104F4
:10053000D5F1200E0DDB02FA0EFC22FA05F280182E
:1005400041F1000103FA0EF2801843FA05F3594114
:100550000EE0A5F120050EF1200E012A03FA0EFC93
:1005600028BF4CF0020C43FA05F3C01851EBE371BD
:1005700001F0004507D54FF0000EDCF1000C7EEBDA
:1005800000006EEB0101B1F5801F1BD3B1F5001F18
:100590000CD349085FEA30004FEA3C0C04F1010437
:1005A0004FEA445212F5800F80F09A80BCF1004F60
:1005B00008BF5FEA500C50F1000041EB045141EAE2
:1005C000050130BD5FEA4C0C404141EB0101013CAB
:1005D00028BFB1F5801FE9D291F0000F04BF01469A
:1005E0000020B1FA81F308BF2033A3F10B03B3F16C
:1005F00020020CDA0C3208DD02F1140CC2F10C02FC
:1006000001FA0CF021FA02F10CE002F11402D8BF59
:10061000C2F1200C01FA02F120FA0CFCDCBF41EA25
:100620000C019040E41AA2BF01EB0451294330BDF4
:100630006FEA04041F3C1CDA0C340EDC04F11404D1
:10064000C4F1200220FA04F001FA02F340EA0300A8
:1006500021FA04F345EA030130BDC4F10C04C4F1EE
:10066000200220FA02F001FA04F340EA03002946CE
:1006700030BD21FA04F0294630BD94F0000F83F418
:10068000801306BF81F480110134013D4EE77FEAFB
:10069000645C18BF7FEA655C29D094EA050F08BF47
:1006A00090EA020F05D054EA000C04BF1946104628
:1006B00030BD91EA030F1EBF0021002030BD5FEA6C
:1006C000545C05D14000494128BF41F0004130BD94
:1006D00014F580043CBF01F5801130BD01F00045E8
:1006E00045F0FE4141F470014FF0000030BD7FEA5B
:1006F000645C1ABF194610467FEA655C1CBF0B4656
:10070000024650EA013406BF52EA033591EA030F6C
:1007100041F4002130BD00BF90F0000F04BF002164
:10072000704730B54FF4806404F132044FF0000597
:100730004FF0000150E700BF90F0000F04BF002110
:10074000704730B54FF4806404F1320410F0004576
:1007500048BF40424FF000013EE700BF42004FEA71
:10076000E2014FEA31014FEA02701FBF12F07F43EE
:1007700093F07F4F81F06051704732F07F4208BFA5
:10078000704793F07F4F04BF41F40021704730B5AC
:100790004FF4607401F0004521F000411CE700BFF8
:1007A00050EA010208BF704730B54FF000050AE07B
:1007B00050EA010208BF704730B511F0004502D57C
:1007C000404261EB41014FF4806404F132045FEA7E
:1007D000915C3FF4D8AE4FF003025FEADC0C18BF27
:1007E00003325FEADC0C18BF033202EBDC02C2F119
:1007F000200300FA03FC20FA02F001FA03FE40EAAB
:100800000E0021FA02F11444BDE600BF4FEA410296
:10081000B2F1E04324BFB3F5001CDCF1FE5C0DD95E
:1008200001F0004C4FEAC0024CEA5070B2F1004FA8
:1008300040EB830008BF20F00100704711F0804FAB
:1008400021D113F13872BCBF01F00040704741F470
:1008500080114FEA5252C2F11802C2F1200C10FA74
:100860000CF320FA02F018BF40F001004FEAC12358
:100870004FEAD32303FA0CFC40EA0C0023FA02F3FC
:100880004FEA4303CCE77FEA625307D150EA0133D2
:100890001EBF4FF0FE4040F44000704701F00040A2
:1008A00040F0FE4040F40000704700BF53B94AB921
:1008B000002908BF00281CBF4FF0FF314FF0FF3068
:1008C00000F00CB8ADF1080C6DE904CE02F0AAFE00
:1008D000DDF804E0DDE9022304B07047704700BF93
:1008E0000348044B834202D0034B03B118477047BF
:1008F0006400002064000020000000000548064B52
:100900001B1AD90F01EBA301491002D0034B03B10D
:1009100018477047640000206400002000000000B9
:1009200010B5064C237843B9FFF7DAFF044B13B137
:100930000448AFF300800123237010BD6400002041
:1009400000000000E038000808B5054B1BB1054960
:100950000548AFF30080BDE80840FFF7CFBF00BFF8
:100960000000000068000020E0380008F0B58BB0FF
:1009700000240594069407940894099401942A4B42
:100980001A6B42F004021A631A6B02F0040201921D
:10099000019A02941A6B42F080021A631A6B02F0F9
:1009A00080020292029A03941A6B42F001021A63C7
:1009B0001A6B02F001020392039A04941A6B42F03C
:1009C00002021A631B6B03F002030493049B174F8C
:1009D00022464FF40871384601F066FC144D224659
:1009E0008021284601F060FC4FF400530593114B21
:1009F0000693079405A9284601F080FB4FF408737D
:100A00000593012606960794089405A9384601F037
:100A100075FB8023059306960794089405A928463C
:100A200001F06CFB0BB0F0BD00380240000002404A
:100A3000000802400000211008B50848084B036078
:100A40004FF4E133436000238360C36003610C22F1
:100A500042618361C36102F03DF808BDCC00002013
:100A60000044004008B50948094B0360094B436046
:100A700000238360C3604FF480420261436183615D
:100A8000C361036200F05AFD08BD00BF640100208D
:100A900000540040A086010008B50C480C4B0360D0
:100AA0004FF48273436000238360C360036143613A
:100AB0004FF4007282612022C2610362436283624A
:100AC0000A23C36201F029FD08BD00BF0C0100200C
:100AD0000030014030B595B03022002108A802F066
:100AE0001BF900240394049405940694079401943C
:100AF0001B4B1A6C42F080521A641B6C03F080533B
:100B00000193019B0294174A136823F4404343F472
:100B100000431360136803F440430293029B0225D1
:100B2000089501230B9310230C930E950F941093AB
:100B30004FF4A8731193042312930723139308A867
:100B400000F0CEFF0F230393049505944FF48053D8
:100B500006930794294603A801F0FCF915B030BDAF
:100B6000003802400070004010B50211124B5A705C
:100B700000019870022907D0032919D0042905D152
:100B80000D4B13221A7001E011221A700B4C002237
:100B90008021204601F088FB0A23032206490848E9
:100BA00001F0FBFC01228021204601F07DFB10BDFD
:100BB000014B12221A70E9E7C80000200008024029
:100BC0000C0100202DE9F04182B0124A0227177073
:100BD000114E124D4FF00A08CDF8008001233178F4
:100BE000284600F039FD0E4B18700E4CCDF80080F1
:100BF0003B4622463178284600F0F4FD0A4B188027
:100C0000224612F80109937843EA002002B0BDE8B9
:100C1000F08100BFC000002004000020640100201B
:100C2000B4000020BD000020B6000020F0B583B065
:100C30000F4A042313700F4E0F4D0A27009701230C
:100C40003178284600F008FD0C4B18700C4C0097CA
:100C5000022322463178284600F0C4FD094B188053
:100C6000224612F80109937843EA002003B0F0BD50
:100C7000C00000200400002064010020B400002017
:100C8000BD000020B600002008B510F4004F0AD1C6
:100C9000FFF752FD00220B4BFFF7D2FAFFF7B6FD2C
:100CA00000EE100A08BDC04380B2C0F10100FFF79A
:100CB00043FD0022034BFFF7C3FAFFF7A7FD00EE49
:100CC000100AEFE70000F43F08B510F4004F0BD115
:100CD000FFF732FD0CA3D3E90023FFF7B1FAFFF7CA
:100CE00095FD00EE100A08BDC04380B2C0F10100BE
:100CF000FFF722FD04A3D3E90023FFF7A1FAFFF7D2
:100D000085FD00EE100AEEE79A9999999999993F15
:100D100070B588B00446FFF755FFFFF7B5FF9FEDAC
:100D2000197AC0EE077A184EC6ED007AFFF77EFFFB
:100D3000FFF7CAFF10EE100A144B83ED000A144DA2
:100D4000144B1B880693144B1B880593134B1B886D
:100D50000493FFF703FDCDE902013068FFF7FEFCC5
:100D6000CDE900010E4A2821284601F0A1FF6423A5
:100D7000282229460B4801F0DCFE204601F05AFBF0
:100D800008B070BD00007A44B0000020AC00002024
:100D900080000020A8000020C600002006000020DF
:100DA000F8380008CC00002080B582B001F016FBB6
:100DB000FFF790FEFFF7DAFDFFF73EFEFFF752FE6A
:100DC000FFF76AFE594B44F227521A80584C00250F
:100DD0002570452363702723A370DFF88481554F66
:100DE000142300930323224698F80010384600F09D
:100DF00033FCDFF870A10A2600960223524698F8C9
:100E00000010384600F0EEFCDFF85C91A9F8000015
:100E1000494B4FF400621A80052323700823637046
:100E2000A57000960323224698F80010384600F07B
:100E300013FC424B187000960223524698F800109B
:100E4000384600F0CFFCA9F80000642001F0F2FA67
:100E5000DFF8F4A00127AAF80070394C282323708A
:100E60006570A770DFF8DC802A468021404601F0DB
:100E70001BFADFF8D890334603222146484601F09A
:100E80008CFB3A468021404601F00EFAAAF8007029
:100E9000382323706570A7702A468021404601F0F0
:100EA00003FA334603222146484601F076FB002828
:100EB00037D0244E01228021304601F0F5F90A2076
:100EC00001F0B8FA0C23204A13801D4D30222A70FD
:100ED00000246C70AB7022468021304601F0E4F9AA
:100EE0000A2303222946194801F057FB01228021D9
:100EF000304601F0D9F9164D2C804FF47A60154B2D
:100F000018800221FFF730FE03212888FFF72CFE0E
:100F100004212046FFF728FE0F4B1868FFF7F8FE64
:100F2000FAE720210D4801F0C5F9C2E7BA00002018
:100F3000C000002064010020B8000020B4000020A0
:100F4000C800002000080240C40000200C0100205E
:100F500006000020C6000020000000200000024023
:100F600004000020BD000020B60000207047FEE70E
:100F7000FEE7FEE7FEE770477047704708B501F0EF
:100F800047FA08BD00B583B0002100910C4B5A6CA4
:100F900042F480425A645A6C02F480420092009AF1
:100FA00001911A6C42F080521A641B6C03F080535A
:100FB0000193019B072001F0B5F903B05DF804FB34
:100FC0000038024030B589B00023039304930593A1
:100FD000069307930268154B9A4201D009B030BDC1
:100FE00000250195124C236B43F002032363236B0E
:100FF00003F002030193019B4FF440730393122308
:10100000049301230593032306930423079303A961
:10101000084801F073F80295236C43F4001323642D
:10102000236C03F400130293029BD7E700540040A3
:101030000038024000040240F0B589B00023039359
:10104000049305930693079302681E4B9A4201D0BE
:1010500009B0F0BD0024009403F584335A6C42F4C7
:1010600080525A645A6C02F480520092009A0194A1
:101070001A6B42F001021A631A6B02F0010201922C
:10108000019A02941A6B42F002021A631B6B03F07E
:1010900002030293029BC0230393022704970326B3
:1010A00006960525079503A9074801F027F80823A8
:1010B0000393049705940696079503A9034801F046
:1010C0001DF8C5E700300140000002400004024066
:1010D00000B589B000230393049305930693079307
:1010E0000268144B9A4202D009B05DF804FB00215B
:1010F000019103F5FA331A6C42F400321A641A6C47
:1011000002F400320192019A02911A6B42F001023C
:101110001A631B6B03F001030293029B0C230393DE
:10112000022304930723079303A9034800F0E6FF73
:10113000DAE700BF004400400000024003685A693B
:1011400012F4806F01D1002070476FF480625A6101
:101150000423036400230363202280F83D2080F8E9
:101160003C30012070472DE9F04107460D4690467E
:101170001E4620E02EB101F057F9069BC01AB0427E
:1011800019D900233B63202287F83D2087F83E30A1
:1011900087F83C3003201EE03B689C6925EA040C7C
:1011A0001FFA8CFCBCFA8CFC4FEA5C1CE04511D1A8
:1011B000B6F1FF3FDED1C5F30743012BECD13B680D
:1011C0005B6925EA030C1FFA8CFCBCFA8CFC4FEA25
:1011D0005C1CEBE70020BDE8F0812DE9F0410546FD
:1011E0000E461746984633E01A6842F400721A60B9
:1011F0002B686FF480625A6104232B6400232B63F5
:10120000202285F83D2085F83C3001202EE02FB1CA
:1012100001F00AF9A0EB0800B84219D900232B63AA
:10122000202285F83D2085F83C3003201EE02B6805
:101230009C6926EA0404A4B2003C18BF0124A4B1AE
:101240002B685A6912F4806FCED1B7F1FF3FDED11F
:10125000C6F30743012BEAD12B685C6926EA040434
:10126000A4B2003C18BF0124E9E70020BDE8F081EA
:10127000F0B583B004460D4616461F46C36A042BDC
:101280000DD0012B0BD013F5803F08D0036B122B30
:101290000AD10268136843F48073136004E0226883
:1012A000136843F4807313600097334600224FF0B5
:1012B00001112046FFF757FF70BB2369B3F5804F3C
:1012C0000FD1236805F0FE051D613B4632461449E7
:1012D0002046FFF782FF00B3236C042B1AD00320B3
:1012E0001BE0EB11226803F0060343F0F0031361E7
:1012F0003B4632460B492046FFF76FFF30B1236C67
:10130000042B01D0032008E0012006E02368EDB2A1
:101310001D61DAE7012000E0032003B0F0BD00BF4B
:1013200002000100080001002DE9F04184B00446EC
:101330000D4616461F46C26A01680B6843F4806377
:101340000B60042A0DD0012A0BD012F5803F08D083
:10135000036B112B0AD10268136843F48073136086
:1013600004E02268136843F48073136000973346E7
:1013700000224FF001112046FFF7F5FE002857D15B
:101380002369B3F5804F11D1236845F00105EDB213
:101390001D613B46324629492046FFF71EFF0028C3
:1013A00047D0236C042B41D0032042E04FEAE518DC
:1013B00008F00608236848F0F0021A613B463246FE
:1013C0001F492046FFF709FF30B1236C042B01D0E1
:1013D00003202EE001202CE02368EDB21D613B4686
:1013E000324616492046FFF7F8FE30B1236C042B35
:1013F00001D003201DE001201BE00022039223689E
:1014000059690391996903910399196841F48071AD
:101410001960009733464FF001112046FFF7A3FEF5
:1014200050B9226848F0F1031361B2E7012000E0EF
:10143000032004B0BDE8F0810320FAE702000100B8
:101440000800010070B504460D46164623685B6926
:1014500013F0800F19D12046FFF770FEB8B9B5F12F
:10146000FF3FF3D025B100F0DFFF801BA842EDD98C
:10147000236C43F02003236400232363202284F899
:101480003D2084F83C30032000E0002070BD0120A6
:10149000FCE770B504460D46164623685B6913F0F9
:1014A000040F19D12046FFF749FEB8B9B5F1FF3F47
:1014B000F3D025B100F0B8FF801BA842EDD9236C12
:1014C00043F02003236400232363202284F83D207B
:1014D00084F83C30032000E0002070BD0120FCE7D0
:1014E00070B505460C4616462B68596911F0400F39
:1014F00022D1596911F0100F11D124B100F094FFDD
:10150000801BA042F0D92B6C43F020032B642023D6
:1015100085F83D30002385F83C30032070BD6FF026
:1015200010025A6100232B642B63202285F83D2092
:1015300085F83C300120F1E70020EFE7002800F0BB
:10154000828010B5044690F83D30002B41D0242312
:1015500084F83D302268136823F00103136000F023
:10156000ADFD3A4BA3FB00239B0C226853606168DE
:10157000374A914232D80133226813626368344A91
:10158000934235D85B00B0FBF3F040F6FC73184291
:1015900000D104202368D861E369216A22680B43E3
:1015A00013602369E16822680B4393606369A16952
:1015B00022680B43D3602268136843F00103136071
:1015C00000202064202384F83D30206384F83E000E
:1015D00010BD80F83C30FFF7F5FCB8E74FF4967289
:1015E00002FB03F31B4AA2FB03239B090133C3E75E
:1015F000A16889B903EB4302B0FBF2F2C2F30B021C
:10160000B2FA82F25209E2B991B903EB4303B0FB9B
:10161000F3F343F40040BDE703EB830202EB8202E5
:10162000B0FBF2F2C2F30B02B2FA82F25209EAE71D
:1016300003EB830303EB8303B0FBF3F040F4404080
:10164000A8E70120A6E70120704700BF83DE1B4307
:10165000A0860100D34D62102DE9F04385B0044609
:101660000F46914698460C9E00F0DEFE054694F823
:101670003D00C0B2202804D00227384605B0BDE89E
:10168000F08300951923012255492046FFF76BFD91
:10169000002840F0A08094F83C30012B00F09D80A1
:1016A000012384F83C3023681A6812F0010F03D13B
:1016B0001A6842F001021A602268136823F400637A
:1016C0001360212384F83D30102384F83E3000233A
:1016D0002364C4F82490A4F82A80A3F58033E3623D
:1016E000638D23852B46324639462046FFF7C0FDE1
:1016F000074660B1236C042B04D0002384F83C30EF
:101700000327BAE7002384F83C300127B5E700231C
:10171000039323685A6903929B690393039B12E026
:10172000236C042B01D00327A7E72268136843F436
:10173000007313600127A0E72A4631462046FFF7D1
:10174000A8FE00282DD1238D002B36D02A46314605
:101750002046FFF777FE0028E2D1636A5A1C6262D6
:1017600022681B781361618D89B2013989B2618564
:10177000238D013B9BB223852268516911F0040F30
:10178000DAD0002BD8D0636A591C61621B781361D0
:10179000638D9BB2013B9BB26385238D013B238507
:1017A000CAE7236C042B01D0032766E7226813687D
:1017B00043F40073136001275FE72268136843F462
:1017C00000731360202384F83D30002384F83E30FA
:1017D00084F83C3051E702274FE702274DE700BF6E
:1017E000020010002DE9F04387B004460F469146F1
:1017F00098460E9E00F018FE054694F83D00C0B2D3
:10180000202804D00227384607B0BDE8F0830095B1
:10181000192301228F492046FFF7A5FC002840F03C
:10182000548194F83C30012B00F05181012384F85D
:101830003C3023681A6812F0010F03D11A6842F095
:1018400001021A602268136823F4006313602223E4
:1018500084F83D30102384F83E3000232364C4F81C
:101860002490A4F82A80A3F58033E362638D238556
:101870002B46324639462046FFF756FD074660B1F3
:10188000236C042B04D0002384F83C300327BAE7F0
:10189000002384F83C300127B5E7238D5BB9029320
:1018A00023685A6902929A690292029A1A6842F46B
:1018B00000721A607DE0012B0FD0022B1FD022682E
:1018C000136843F4806313600023059323685A6907
:1018D00005929B690593059B6BE02268136823F4CE
:1018E000806313600023039323685A6903929A6903
:1018F0000392039A1A6842F400721A6059E022684F
:10190000136823F4806313602268136843F4006350
:1019100013600023049323685A6904929B6904931B
:10192000049B46E02A4631462046FFF7D9FD70B9B0
:1019300023681A69636A591C61621A70238D013B1E
:101940002385638D9BB2013B9BB2638531E0236CA1
:10195000202B01D0012756E7032754E70095334693
:1019600000223D492046FFF7FEFB002840F0B180F1
:101970002268136843F40073136023681A69636A6A
:10198000591C61621A70238D013B2385638D9BB2C4
:10199000013B9BB2638523681A69636A591C6162C3
:1019A0001A70238D013B2385638D9BB2013B9BB253
:1019B0006385218D00297FD003294FD80129B1D01B
:1019C0000229CBD000953346002223492046FFF759
:1019D000CAFB00287FD12268136823F48063136058
:1019E00023681A69636A591C61621A70238D013B6E
:1019F0002385618D89B2013989B2618500953346AD
:101A0000002215492046FFF7AEFB002865D1226869
:101A1000136843F40073136023681A69636A591CDE
:101A200061621A70238D013B2385638D9BB2013B5C
:101A30009BB2638523681A69636A591C61621A70D4
:101A4000238D013B2385638D9BB2013B9BB2638554
:101A5000AFE700BF02001000040001002A46314633
:101A60002046FFF73DFD00BB23681A69636A591CD5
:101A700061621A70238D013B2385638D9BB2013B0C
:101A80009BB2638523685A6912F0040F91D01A69DA
:101A9000636A591C61621A70238D013B2385638D33
:101AA0009BB2013B9BB2638583E7236C202B01D063
:101AB0000127A8E60327A6E6202384F83D3000236B
:101AC00084F83E3084F83C309DE602279BE60227EE
:101AD00099E6032797E6032795E6032793E600BFD9
:101AE000002800F0BA8170B582B00446036813F094
:101AF000010F3BD09F4B9B6803F00C03042B2CD0B1
:101B00009C4B9B6803F00C03082B21D06368B3F552
:101B1000803F4FD0B3F5A02F52D0964B1A6822F4D5
:101B200080321A601A6822F480221A606368002BDF
:101B300050D000F079FC05468E4B1B6813F4003F33
:101B400014D100F071FC401B6428F5D903208BE10F
:101B5000884B5B6813F4800FD8D0864B1B6813F456
:101B6000003F03D06368002B00F07981236813F0F5
:101B7000020F54D07F4B9B6813F00C0F3ED07D4B6F
:101B80009B6803F00C03082B33D0E368002B68D06C
:101B9000794B01221A6000F047FC0546754B1B6823
:101BA00013F0020F54D100F03FFC401B0228F5D97E
:101BB000032059E16F4A136843F480331360B5E79B
:101BC0006C4B1A6842F480221A601A6842F4803220
:101BD0001A60ABE700F028FC0546664B1B6813F45F
:101BE000003FC3D000F020FC401B6428F5D903203F
:101BF0003AE1604B5B6813F4800FC6D15D4B1B6804
:101C000013F0020F03D0E368012B40F02A81594AF8
:101C1000136823F0F803216943EAC10313602368C2
:101C200013F0080F42D063696BB3534B0122C3F822
:101C3000802E00F0F9FB05464E4B5B6F13F0020F50
:101C400034D100F0F1FB401B0228F5D903200BE151
:101C5000484A136823F0F803216943EAC10313607B
:101C6000DDE7454B00221A6000F0DEFB0546414BE4
:101C70001B6813F0020FD2D000F0D6FB401B0228E5
:101C8000F5D90320F0E03C4B0022C3F8802E00F091
:101C9000CBFB0546374B5B6F13F0020F06D000F00D
:101CA000C3FB401B0228F5D90320DDE0236813F0B5
:101CB000040F77D02F4B1B6C13F0805F33D10023C0
:101CC00001932C4B1A6C42F080521A641B6C03F087
:101CD00080530193019B0125284B1B6813F4807FDF
:101CE00023D0A368012B34D0052B38D0214B1A6F99
:101CF00022F001021A671A6F22F004021A67A36821
:101D0000002B3DD000F090FB06461A4B1B6F13F0E2
:101D1000020F46D100F088FB801B41F288339842C5
:101D2000F3D90320A0E00025D6E7144A136843F452
:101D30008073136000F078FB0646104B1B6813F4A9
:101D4000807FCED100F070FB801B0228F5D90320E4
:101D50008AE0084A136F43F001031367CFE7054B8E
:101D60001A6F42F004021A671A6F42F001021A67F2
:101D7000C5E700BF00380240000047420070004045
:101D800000F052FB06463A4B1B6F13F0020F08D0CF
:101D900000F04AFB801B41F288339842F3D90320BC
:101DA00062E0E5B9A369002B5DD0314A926802F088
:101DB0000C02082A5AD0022B17D02E4B00221A668A
:101DC00000F032FB04462A4B1B6813F0007F42D020
:101DD00000F02AFB001B0228F5D9032044E0244A26
:101DE000136C23F080531364DCE7224B00221A6645
:101DF00000F01AFB05461E4B1B6813F0007F06D04F
:101E000000F012FB401B0228F5D903202CE0E36907
:101E1000226A1343626A43EA8213A26A5208013AB1
:101E200043EA0243E26A43EA0263114A5360114BF8
:101E300001221A6600F0F8FA04460D4B1B6813F0F5
:101E4000007F06D100F0F0FA001B0228F5D903202C
:101E50000AE0002008E0002006E001207047012091
:101E600002E0012000E0002002B070BD0120FBE78D
:101E7000003802400000474208B5334B9B6803F02E
:101E80000C03042B5BD0082B5BD12F4B5A6802F05C
:101E90003F025B6813F4800F2CD02B4B5868C0F3C3
:101EA00088104FEA401CBCEB000C6EEB0E0E4FEAA4
:101EB0008E1343EA9C634FEA8C11B1EB0C0163EB88
:101EC0000E03DB0043EA5173C90011EB000C43F130
:101ED0000003590200234FEA4C2041EADC51FEF78F
:101EE000E5FC194B5B68C3F3014301335B00B0FBB6
:101EF000F3F008BD144B5868C0F388104FEA401C3B
:101F0000BCEB000C6EEB0E0E4FEA8E1343EA9C63A3
:101F10004FEA8C11B1EB0C0163EB0E03DB0043EADB
:101F20005173C90011EB000C43F100039902002327
:101F30004FEA8C2041EA9C51FEF7B8FCD1E70348F8
:101F4000D7E70348D5E700BF0038024000127A0007
:101F50000024F400002800F09A8070B50D46044675
:101F60004F4B1B6803F00F038B4208D2CBB24C4A95
:101F70001370136803F00F038B4240F08A802368CC
:101F800013F0020F17D013F0040F04D0454A9368E2
:101F900043F4E0539360236813F0080F04D0414AE0
:101FA000936843F4604393603E4A936823F0F003E0
:101FB000A1680B439360236813F0010F32D063686C
:101FC000012B21D09A1E012A25D9364A126812F017
:101FD000020F60D033498A6822F0030213438B60FA
:101FE00000F022FA06462F4B9B6803F00C03626850
:101FF000B3EB820F16D000F017FA801B41F2883342
:102000009842F0D9032041E0264A126812F4003FBA
:10201000E0D101203AE0234A126812F0007FD9D1C2
:10202000012033E01E4B1B6803F00F03AB4207D9BE
:10203000EAB21B4B1A701B6803F00F03AB422CD1A2
:10204000236813F0040F06D0164A936823F4E05374
:10205000E1680B439360236813F0080F07D0114A1F
:10206000936823F46043216943EAC1039360FFF757
:1020700003FF0C4B9B68C3F303130B4AD35CD8409C
:102080000A4B1860002000F083F9002070BD012089
:1020900070470120FAE70120F8E70120F6E700BFCA
:1020A000003C0240003802401C39000810000020AB
:1020B000014B1868704700BF1000002008B5FFF7FB
:1020C000F7FF044B9B68C3F38223034AD35CD840D9
:1020D00008BD00BF003802401439000808B5FFF7FA
:1020E000E7FF044B9B68C3F34233034AD35CD840F9
:1020F00008BD00BF003802401439000800230F2B30
:1021000000F2C88070B582B03AE0042200E00022FC
:10211000AA4032430234604D45F824205F4A1468D7
:102120006FEA0C0224EA0C054E6816F4803F01D0D9
:102130004CEA0405594C2560646802EA04054E68BF
:1021400016F4003F01D04CEA0405544C6560A468C5
:1021500002EA04054E6816F4801F01D04CEA04051B
:102160004E4CA560E46822404D6815F4001F01D074
:102170004CEA0402494CE26001330F2B00F28880E4
:1021800001229A400C6804EA020C32EA0404F3D1FA
:102190004C68022C01D0122C12D1DD08083550F801
:1021A000254003F00706B6004FF00F0E0EFA06FEAC
:1021B00024EA0E0E0C69B44044EA0E0440F82540AF
:1021C00006684FEA430E032404FA0EF4E54326EAB8
:1021D00004064C6804F0030404FA0EF4344304606B
:1021E0004C68661E012E03D9112C01D0122C0FD180
:1021F00086682E40CC6804FA0EF434438460446848
:1022000024EA02044A68C2F300129A402243426060
:10221000C26815408A6802FA0EF22A43C2604A6810
:1022200012F0805FA8D0002201921D4A546C44F441
:1022300080445464526C02F480420192019A9C08DA
:10224000A51C154A52F8256003F00305AD000F22C6
:10225000AA4026EA0206134A90423FF458AF02F51C
:10226000806290420ED002F5806290420CD002F55E
:10227000806290420AD002F5806290423FF445AFFE
:10228000072245E7012243E7022241E703223FE715
:1022900002B070BD704700BF00380140003C0140F3
:1022A00000380240000002400AB181617047090411
:1022B000816170474369594041617047002808DBDC
:1022C0000901C9B200F1604000F5614080F80013D7
:1022D000704700F00F000901C9B2014B1954704753
:1022E00014ED00E000B500F00700C0F1070CBCF1F0
:1022F000040F28BF4FF0040C031D062B0FD9C31E7B
:102300004FF0FF3E0EFA0CF021EA000199400EFA60
:1023100003FE22EA0E0241EA02005DF804FB0023FC
:10232000EEE70000074AD36823F4E0631B041B0CAC
:10233000000200F4E060034343F0BF6343F4003362
:10234000D360704700ED00E010B50446054BD86837
:10235000C0F30220FFF7C6FF01462046FFF7AEFF9D
:1023600010BD00BF00ED00E00138B0F1807F0BD25E
:102370004FF0E0235861054AF02182F82310002035
:10238000986107221A6170470120704700ED00E054
:1023900010B504460E4B1A784FF47A73B3FBF2F380
:1023A0000C4A1068B0FBF3F0FFF7DEFF68B90F2CA2
:1023B00001D901200AE0002221464FF0FF30FFF74B
:1023C000C3FF054B1C60002000E0012010BD00BFD2
:1023D00008000020100000200C00002008B50B4B66
:1023E0001A6842F400721A601A6842F480621A6035
:1023F0001A6842F480721A600320FFF793FF0020EE
:10240000FFF7C6FFFEF7BEFD002008BD003C0240FE
:10241000034A1168034B1B780B441360704700BFDD
:10242000B801002008000020014B1868704700BF69
:10243000B801002038B50446FFF7F6FF0546B4F1B1
:10244000FF3F02D0044B1B781C44FFF7EDFF401BFD
:10245000A042FAD338BD00BF080000202DE9F041AA
:102460000646884617461D463BE02DB1FFF7DCFFC8
:10247000069BC01AA84234D33268536823F0E003A5
:1024800053607368B3F5827F0BD0B36AB3F5005F16
:1024900014D0012386F85130002386F850300320F1
:1024A00027E0B368B3F5004F02D0B3F5806FECD1ED
:1024B0003268136823F040031360E6E7326813685C
:1024C00023F400531B041B0C13603268136843F49D
:1024D00000531360DDE70124BC4209D0B5F1FF3F92
:1024E000C3D13468A46838EA0404F4D00024F3E7C4
:1024F0000020BDE8F08110B582B004460B46009282
:1025000000228021FFF7AAFF08B902B010BD636D59
:1025100043F0200363650320F7E700283BD010B5A4
:1025200004460023836290F85130002B2ED0022302
:1025300084F851302268136823F040031360636805
:10254000A2681343E2681343226913436269134389
:10255000A26902F400721343E2691343226A13432F
:10256000A16A22680B431360638B03F00403616A62
:1025700022680B4353602268D36923F40063D3615C
:1025800000206065012384F8513010BD80F8503080
:10259000FEF752FDCBE7012070472DE9F04385B0EF
:1025A0001D4690F85030012B00F0C98004460E46BD
:1025B0009146012380F85030FFF736FF804694F8AB
:1025C0005170FFB2012F40F0AF80002E00F0AD80BF
:1025D000B9F1000F00F0A980032384F851300023E3
:1025E00063652663A4F83490A4F83690A363A387A8
:1025F000E38763642364A368B3F5004F1CD02368AA
:102600001A6812F0400F03D11A6842F040021A60B3
:10261000E368B3F5006F15D063681BB1E38E9BB21E
:10262000012B41D1236816F8012B1A73E38E9BB25C
:10263000013B9BB2E38637E02268136843F4804392
:102640001360DCE763681BB1E38E9BB2012B0DD1F5
:10265000236836F8022BDA60E38E9BB2013B9BB213
:10266000E38603E0D5B1B5F1FF3F11D1E38E9BB214
:10267000002B37D023689A6812F0020FF2D036F898
:10268000022BDA60E38E9BB2013B9BB2E386EDE75F
:10269000FFF7CAFEA0EB0800A842E7D3032744E0F7
:1026A000F5B1B5F1FF3F15D1E28E92B2D2B12368F8
:1026B0009A6812F0020FF3D016F8012B1A73B4F8CF
:1026C00036C01FFA8CFC0CF1FF3C1FFA8CFCA4F8FE
:1026D00036C0E9E7FFF7A8FEA0EB0800A842E3D365
:1026E000032722E0CDF800802B460122022120465C
:1026F000FFF7B4FE08B1032717E0424629462046FB
:10270000FFF7F9FE034660B9A26832B90392226866
:10271000D168039192680392039A626D2AB91F46A9
:1027200003E02023636500E00227012384F8513091
:10273000002384F85030384605B0BDE8F083022706
:10274000F9E700002DE9F041044601680A6922F426
:102750004052C36813430B610168CA6822F41642F1
:1027600022F00C0283680069034360690343E06957
:1027700003431343CB6021684A6922F44072A36982
:1027800013434B61E369B3F5004F5ED02368B54A4C
:10279000934200F0108102F58062934200F00B81B9
:1027A000FFF78CFC00EB800000EB800063689B006F
:1027B000B0FBF3F5AC4FA7FB05356D092E01FFF714
:1027C0007DFC00EB800000EB800063689B00B0FBA9
:1027D000F3F5FFF773FC00EB800000EB800063680B
:1027E0009B00B0FBF3F0A7FB003040094FF06408FA
:1027F00008FB10531B013233A7FB03235B0903F0D3
:10280000F003F518FFF75AFC00EB800000EB8000A6
:1028100063689B00B0FBF3F6FFF750FC00EB800011
:1028200000EB800063689B00B0FBF3F0A7FB003077
:10283000400908FB10631B013233A7FB0373C3F38A
:10284000431322681D44956009E12368854A934239
:102850005AD002F58062934256D0FFF72FFC00EB6E
:10286000800000EB800863685B00B8FBF3F87E4EE5
:10287000A6FB08384FEA58184FEA0818FFF71EFC65
:1028800000EB800000EB800063685B00B0FBF3F5B9
:10289000FFF714FC00EB800000EB800063685B0036
:1028A000B0FBF3F3A6FB03235B09642707FB135577
:1028B000ED003235A6FB05356D096D0005F4F875A0
:1028C0004544FFF7FBFB00EB800000EB80006368F2
:1028D0005B00B0FBF3F8FFF7F1FB00EB800000EBCF
:1028E000800063685B00B0FBF3F3A6FB03235B0986
:1028F00007FB1383DB003233A6FB0363C3F34213EE
:1029000022681D449560AAE0FFF7E8FB00EB800019
:1029100000EB800063685B00B0FBF3F8524EA6FB4F
:1029200008384FEA58184FEA0818FFF7D7FB00EBB2
:10293000800000EB800063685B00B0FBF3F5FFF7FD
:10294000CDFB00EB800000EB800063685B00B0FB18
:10295000F3F3A6FB03235B09642707FB1355ED0084
:102960003235A6FB05356D096D0005F4F875454453
:10297000FFF7B4FB00EB800000EB800063685B00B6
:10298000B0FBF3F8FFF7AAFB00EB800000EB800040
:1029900063685B00B0FBF3F3A6FB03235B0907FB53
:1029A0001383DB003233A6FB0363C3F342132268B5
:1029B0001D44956053E0FFF791FB00EB800000EBB6
:1029C000800063689B00B0FBF3F5274FA7FB05353C
:1029D0006D092E01FFF782FB00EB800000EB800009
:1029E00063689B00B0FBF3F5FFF778FB00EB80001A
:1029F00000EB800063689B00B0FBF3F0A7FB0030A6
:102A000040094FF0640808FB10531B013233A7FB49
:102A100003235B0903F0F003F518FFF75FFB00EBFE
:102A2000800000EB800063689B00B0FBF3F6FFF7CB
:102A300055FB00EB800000EB800063689B00B0FB5F
:102A4000F3F0A7FB0030400908FB10631B01323391
:102A5000A7FB0373C3F3431322681D449560BDE8CD
:102A6000F08100BF001001401F85EB512DE9F843B4
:102A700005460F4616469946DDF820802B681C68EF
:102A800037EA04040CBF01240024B4421FD1B8F17A
:102A9000FF3FF3D0B8F1000F05D0FFF7C5FCA0EB66
:102AA00009004045EAD92A68D36823F4D073D3607B
:102AB0002A68536923F001035361202385F83930D4
:102AC00085F83A30002385F83830032000E00020F4
:102AD000BDE8F88358B310B5044690F839300BB30D
:102AE000242384F839302268D36823F40053D36058
:102AF0002046FFF727FE2268136923F490431361F1
:102B00002268536923F02A0353612268D36843F48F
:102B10000053D3600020E063202384F8393084F828
:102B20003A3010BD80F83830FEF7D2FAD8E70120ED
:102B300070472DE9F04182B01E4690F83930DBB283
:102B4000202B55D104460D469046002954D0002A2A
:102B500054D090F83830012B52D0012380F838300F
:102B60000023C363212380F83930FFF75DFC07465B
:102B7000A4F82480A4F8268010E000963B460022AA
:102B800080212046FFF772FF00283BD12B88226866
:102B9000C3F3080353602369CBB90235E38C9BB2BE
:102BA000BBB1E28C92B2013A92B2E284A368B3F56F
:102BB000805FE2D000963B46002280212046FFF74E
:102BC00055FF08BB15F8012B23685A60E6E701356D
:102BD000E4E700963B46002240212046FFF746FFEF
:102BE000A0B9202384F83930002384F8383000E07D
:102BF000022002B0BDE8F0810120FAE70120F8E7E9
:102C00000220F6E70320F4E70320F2E70320F0E7D1
:102C10000F49D1F8883043F47003C1F888300D4B68
:102C20001A6842F001021A60002098601A6822F0C7
:102C3000847222F480321A60074A5A601A6822F4B9
:102C400080221A60D8604FF000638B60704700BF2D
:102C500000ED00E00038024010300024DFF834D0EE
:102C6000002103E00C4B5B58435004310B480C4BE4
:102C700042189A42F6D30B4A02E0002342F8043B82
:102C8000094B9A42F9D3FFF7C3FF00F04DF8FEF766
:102C90008BF8704700800120703900080000002088
:102CA000640000206400002008030020FEE700000C
:102CB0000CB430B5174B0C1E1D689DB008DA8B2381
:102CC0002B604FF0FF301DB0BDE8304002B07047C0
:102CD0004FF40273ADF8143014BF04F1FF332346F0
:102CE000049307934FF6FF7302900690ADF81630E9
:102CF000209A21AB02A92846019300F08FF9431CCA
:102D0000BCBF8B232B60002CDDD0029B00221A70ED
:102D1000D9E700BF1400002002440346934200D1CB
:102D2000704703F8011BF9E770B50D4D0D4C641B9E
:102D3000A4100026A64209D10B4D0C4C00F0D0FD8A
:102D4000641BA4100026A64205D170BD55F8043BB3
:102D500098470136EEE755F8043B98470136F2E70D
:102D60006839000868390008683900086C390008BB
:102D70007047704738B50546002941D051F8043CEA
:102D80000C1F002BB8BFE41800F0E0F81D4A1368D0
:102D900033B9636014602846BDE8384000F0DCB801
:102DA000A34208D9206821188B4201BF19685B68CB
:102DB00009182160EDE71A465B680BB1A342FAD906
:102DC00011685018A0420BD120680144501883426A
:102DD0001160E0D118685B68536008441060DAE75E
:102DE00002D90C232B60D6E7206821188B4204BF40
:102DF00019685B68636004BF091821605460CAE702
:102E000038BD00BF0003002070B50F4E0C4631687E
:102E1000054611B900F0A4FB30602146284600F0B9
:102E20009FFB431C03D14FF0FF34204670BDC41CF0
:102E300024F00304A042F8D0211A284600F090FBA9
:102E40000130F2D1EFE700BFFC0200202DE9F8438A
:102E5000CD1C25F0030508350C2D38BF0C25002DA1
:102E6000064601DBA94204D90C2333600020BDE8EB
:102E7000F883DFF8D48000F069F8D8F800301C46F9
:102E800044BB29463046FFF7BFFF431C044658D1D8
:102E9000D8F800402746002F43D1002C4BD02368A0
:102EA0003946304604EB030900F05AFB814542D114
:102EB00021686D1A29463046FFF7A6FF01303AD047
:102EC00023682B442360D8F800305A6862BBC8F8E6
:102ED00000700FE02268521B20D40B2A17D9611909
:102EE000A342256018BF5960636808BFC8F8001086
:102EF00062514B60304600F02FF804F10B00231DA7
:102F000020F00700C21A1CBF1B1AA350AFE762686B
:102F1000A3420CBFC8F800205A60EBE72346646860
:102F2000AEE73C467F68B6E71A465B68A342FBD132
:102F300000235360DEE70C233360304600F00CF8CA
:102F400094E70560D6E700BF000300200148FFF7C3
:102F50000FBF00BFF80200200148FFF70ABF00BF03
:102F6000F80200202DE9F0478E681F46BE420B682C
:102F700082460C4690462DD8B1F90C2012F4906F81
:102F800026D06569096905EB4505A3EB010905EB49
:102F9000D5757B1C4B446D109D4238BF1D465305B3
:102FA00027D52946FFF752FF064660B321694A46F6
:102FB00000F0E6FAA38923F4906343F08003A38131
:102FC000266165614E44A5EB09052660A5603E4675
:102FD000BE4200D93E4620683246414600F0A6FA7D
:102FE000A3689B1BA3602368334423600020BDE8D3
:102FF000F0872A4600F0D2FA06460028E0D121697F
:103000005046FFF7B7FE0C23CAF80030A38943F0FF
:103010004003A3814FF0FF30E9E700002DE9F04FB6
:1030200098468B891B069DB007460D46144610D561
:103030000B6973B94021FFF709FF2860286130B997
:103040000C233B604FF0FF301DB0BDE8F08F4023F4
:103050006B610023099320238DF82930CDF80C8073
:103060003023DFF89C818DF82A304FF00109234688
:103070009A4613F8012B0AB1252AF9D1BAEB040BB1
:103080000BD05B46224629463846FFF76BFF0130DE
:1030900000F0A780099A5A4409929AF80030002B50
:1030A00000F09F8000234FF0FF32CDE905230AF1A5
:1030B000010A049307938DF853301A93544605225E
:1030C00014F8011B4E48FDF76BF8049AD8B9D006E6
:1030D00044BF20238DF85330110744BF2B238DF8B4
:1030E00053309AF800302A2B15D0079A5446002006
:1030F0004FF00A0C214611F8013B303B092B4BD90C
:10310000B0B1079214E0A0EB080309FA03F31343EC
:103110000493A246D2E7039B191D1B680391002B61
:10312000BBBF5B4242F0020207930793B8BF049211
:1031300023782E2B0AD163782A2B32D1039B1A1DB8
:103140001B68039243EAE37302340593DFF8C0A0DF
:10315000217803225046FDF723F838B1049BA0EBF9
:103160000A004022824013430134049314F8011BE7
:1031700024488DF828100622FDF712F8002836D0D2
:10318000214B1BBB039B073323F007030833039337
:10319000099B334409936AE70CFB02320C46012079
:1031A000A8E700230134059319464FF00A0C204686
:1031B00010F8012B303A092A03D9002BC6D005910B
:1031C000C4E70CFB012104460123F0E703AB0093A5
:1031D0002A460E4B04A93846AFF30080421C06462F
:1031E000D6D1AB895B063FF52DAF09982CE703AB31
:1031F00000932A46054B04A9384600F079F8EDE71C
:103200002C3900083639000800000000652F00083E
:10321000323900082DE9F047164698468A680B694E
:10322000DDF820909342B8BF1346336091F84320F5
:1032300007460C460AB1013333602368990642BF42
:10324000336802333360256815F0060506D104F1B2
:10325000190AE36832689B1AAB4226DC94F84330C3
:103260002268003B18BF012392062BD404F14302CD
:1032700041463846C84701301ED02368226903F012
:103280000603042B02BFE5683368ED1AA3680CBF80
:1032900025EAE57500259342C4BF9B1AED18002668
:1032A0001A34B5421AD1002008E0012352464146A3
:1032B0003846C847013003D14FF0FF30BDE8F087F2
:1032C0000135C6E7E1185A1C302081F8430022443A
:1032D00094F8451082F843100233C7E701232246D1
:1032E00041463846C8470130E6D00136D9E70000EC
:1032F0002DE9FF470F7E0C9E782F914680460C46A5
:103300009A4601F1430207D8622F0AD8002F00F035
:10331000D180582F00F0B88004F1420684F8427042
:103320003AE0A7F16303152BF6D801A151F823F079
:10333000893300089D330008193300081933000849
:1033400019330008193300089D33000819330008A9
:103350001933000819330008193300089B3400089A
:10336000C733000855340008193300081933000822
:10337000BD34000819330008C733000819330008AA
:10338000193300085D34000833681A1D1B68326069
:1033900004F1420684F8423001239CE0336820683F
:1033A000191D3160060601D51D6803E04506FBD5F1
:1033B000B3F90050002D03DA2D236D4284F8433019
:1033C00058480A2311E021683368080653F8045B63
:1033D00002D4490648BFADB26F2F5248336014BFC4
:1033E0000A230823002184F843106668A660002E93
:1033F00005DB21682E4321F0040121604BD01646E5
:10340000B5FBF3F103FB1157C75D06F8017D2F46AD
:10341000BB420D46F4D9082B0BD12368DF0708D532
:10342000236961689942DEBF302306F8013C06F14A
:10343000FF36921B2261CDF800A04B4603AA21461D
:103440004046FFF7E7FE01304AD14FF0FF3004B0AD
:10345000BDE8F087236843F02003236032487827D3
:1034600084F84570236831681F0651F8045B02D464
:103470005F0648BFADB23160D90744BF43F02003B7
:1034800023601DB11023ADE72648E9E7236823F048
:1034900020032360F6E71646BDE7336825686169B7
:1034A000181D30602E061B6801D5196002E0680601
:1034B000FBD51980002323611646BCE733681A1D2B
:1034C00032601E68626800213046FCF769FE08B170
:1034D000801B606063682361002384F84330AAE79F
:1034E0002369324649464046D0470130ADD0236873
:1034F0009B0713D4E068039B9842B8BF1846A6E721
:103500000123324649464046D04701309DD001351F
:10351000E36803995B1AAB42F2DCEBE7002504F1A8
:103520001906F5E73D3900084E390008884210B504
:1035300001EB020402D98442234607D8431EA1426C
:1035400008D011F8012B03F8012FF8E702440146D7
:103550008A4200D110BD13F8014D02F8014DF7E782
:1035600038B5064D0023044608462B6000F04CF8A1
:10357000431C02D12B6803B1236038BDF402002044
:103580000A44914200F1FF3300D1704710B511F8A1
:10359000014B03F8014F9142F9D110BD2DE9F041E3
:1035A000074614460D4621B9BDE8F0411146FFF724
:1035B0004DBC2AB9FFF7DEFB25462846BDE8F08161
:1035C00000F01AF88442064602D8B4EB500FF4D843
:1035D00021463846FFF73AFC804608B94546ECE7F5
:1035E000B4422246294628BF3246FFF7C9FF294682
:1035F0003846FFF7BFFBF1E751F8043C181F002BDA
:10360000BCBF0B58C0187047044A05491368002B0B
:1036100008BF0B461844106018467047040300208A
:10362000080300202DE9F047089D0E4604460F468A
:10363000002B4AD194468C45B2FA82F260D942B14D
:10364000C2F12003974020FA03F30CFA02FC1F4357
:1036500094404FEA1C4E1FFA8CF6B7FBFEF1230C88
:103660000EFB117743EA074301FB06F098420AD9A3
:103670001CEB030301F1FF3780F01581984240F203
:103680001281023963441B1AA4B2B3FBFEF00EFB95
:10369000103344EA034400FB06F6A6420AD91CEBA9
:1036A000040400F1FF3380F00081A64240F2FD8067
:1036B0006444023840EA0140A41B00211DB1D440FB
:1036C0000023C5E90043BDE8F0878B4205D90DB161
:1036D000C5E9000100210846F5E7B3FA83F10029A6
:1036E00046D1B34202D3824200F2F580841A66EBDF
:1036F000030201201746002DE5D0C5E90047E2E7A7
:10370000002A40F09380A1EB0C034FEA1C471FFAFC
:103710008CFE0121B3FBF7F607FB1630230C43EABE
:1037200000430EFB06F0984208D91CEB030306F198
:10373000FF3802D2984200F2D08046461B1AA4B24B
:10374000B3FBF7F007FB103344EA03440EFB00FE23
:10375000A64508D91CEB040400F1FF3302D2A645AC
:1037600000F2B6801846A4EB0E0440EA0640A5E736
:10377000C1F120078B4022FA07FC4CEA030C06FA41
:1037800001FE20FA07F426FA07F344EA0E0400FAD1
:1037900001F84FEA1C404FEA1449B3FBF0FE1FFA50
:1037A0008CF600FB1E3349EA03430EFB06F99945EC
:1037B00002FA01F20BD91CEB03030EF1FF3A80F081
:1037C0008580994540F28280AEF1020E6344A3EBFE
:1037D0000909A4B2B9FBF0F300FB139944EA0944C8
:1037E00003FB06F6A64208D91CEB040403F1FF30E4
:1037F00068D2A64266D9023B644443EA0E40A41B49
:10380000A0FB02E6B4427346B14652D34FD05DB13D
:10381000B8EB030264EB090404FA07F722FA01F398
:103820001F43CC40C5E9007400214CE7C2F12001E0
:1038300020FA01F30CFA02FC26FA01F19640334318
:103840004FEA1C471FFA8CFEB1FBF7F007FB10167E
:10385000190C41EA064100FB0EF68E4204FA02F40E
:1038600008D91CEB010100F1FF382DD28E422BD973
:1038700002386144891B9BB2B1FBF7F607FB1611B6
:1038800043EA014306FB0EF1994208D91CEB0303FE
:1038900006F1FF3814D2994212D9023E63445B1AF2
:1038A00046EA004136E73946EDE6184602E7F045BC
:1038B000ADD2BEEB020366EB0C060138B146A6E7BB
:1038C0004646ECE7034698E74046D3E7D6467EE710
:1038D0006444023847E708460DE7023E63442DE79B
:1038E000F8B500BFF8BC08BC9E467047F8B500BFED
:0838F000F8BC08BC9E467047BD
:1038F8002025312E33662025312E3366202564207D
:103908002564202564200A0D000000000000000046
:10391800010203040000000000000000010203048B
:1039280006070809232D302B2000686C4C006566BB
:1039380067454647003031323334353637383941F8
:10394800424344454600303132333435363738390E
:08395800616263646566000012
:0839600040C8FF7F01000000D8
:043968004909000801
:04396C002109000825
:103970002C01000080000100010000001000000088
:103980000024F4001800002000000000BC0100200A
:10399000240200208C020020000000000000000033
:1039A0000000000000000000000000000000000017
:1039B0000000000000000000000000000000000007
:1039C00000000000000000000000000000000000F7
:0439D00000000000F3
:0400000508002C5D66
:00000001FF
